:020000040800F2
:10000000D824002029020008A3350008F52F000895
:10001000A1350008A1060008853D00080000000089
:100020000000000000000000000000004B37000846
:10003000990700080000000049370008433800080D
:10004000430200084302000843020008430200087C
:10005000430200084302000843020008430200086C
:10006000430200084302000843020008430200085C
:10007000430200084302000843020008430200084C
:10008000DD060008E9060008210400084302000814
:10009000430200084302000843020008430200082C
:1000A00043020008ED38000843020008430200083C
:1000B000430200084302000843020008430200080C
:1000C00043020008430200084302000843020008FC
:1000D00043020008430200084302000843020008EC
:1000E00043020008430200084302000843020008DC
:1000F00043020008430200084302000843020008CC
:1001000043020008430200084302000843020008BB
:1001100043020008430200084302000805390008B2
:10012000430200084302000843020008430200089B
:10013000430200084302000843020008430200088B
:10014000430200084302000843020008430200087B
:10015000430200084302000843020008430200086B
:10016000430200084302000843020008430200085B
:100170004302000843020008430200080000000098
:10018000430200084302000800F002F800F03CF8C7
:100190000AA090E8000C82448344AAF10107DA45E2
:1001A00001D100F031F8AFF2090EBAE80F0013F0F8
:1001B000010F18BFFB1A43F0010318470C4300005E
:1001C0002C430000103A24BF78C878C1FAD85207EF
:1001D00024BF30C830C144BF04680C6070470000C1
:1001E0000023002400250026103A28BF78C1FBD840
:1001F000520728BF30C148BF0B6070471FB504F0DD
:100200004DF81FBD10B510BD00F0CFF81146FFF737
:10021000F5FF03F0DDFE00F0EDF803B4FFF7F2FFA9
:1002200003BC00F0F5F80000094880470948004782
:10023000FEE7FEE7FEE7FEE7FEE7FEE7FEE7FEE796
:10024000FEE7FEE704480549054A064B70470000F3
:10025000DD38000889010008D8180020D8240020C3
:10026000D81C0020D81C002053EA020C00F0698042
:100270002DE9F04B4FF00006002B1FBFB3FA83F5BA
:1002800003FA05F424FA05F65E4012BF1643B2FAEB
:1002900082F502FA05F4C5F120051EBF22FA05FC1D
:1002A00044EA0C04203556EA044C4FEA144418BFC3
:1002B000641C4FF000084FF00009904271EB030CF2
:1002C00039D3002919BFB1FA81F701FA07F6B0FA5C
:1002D00080F700FA07F6C7F120071EBF20FA07FCD7
:1002E00046EA0C062037B6FBF4FCA7EB0507103FE7
:1002F00007F01F0BCBF120060CFA0BFB2CFA06F6CD
:1003000044BFB3460026202FA4BF5E464FF0000B2B
:100310005BEA060C08BF4FF0010B19EB0B09ABFBB6
:10032000027C48EB0608C01B06FB02CC0BFB03CC8F
:1003300071EB0C01C1E70B46024641464846BDE859
:10034000F08B13B54FF000004FF00001AFF30080C9
:10035000BDE81C4070474FF0000200B513469446BC
:100360009646203922BFA0E80C50A0E80C50B1F10D
:100370002001BFF4F7AF090728BFA0E80C5048BF21
:100380000CC05DF804EB890028BF40F8042B08BFBF
:10039000704748BF20F8022B11F0804F18BF00F8BB
:1003A000012B7047704770477047754600F02CF876
:1003B000AE4605006946534620F00700854618B052
:1003C00020B5FFF73FFFBDE820404FF000064FF09B
:1003D00000074FF000084FF0000B21F00701AC467A
:1003E000ACE8C009ACE8C009ACE8C009ACE8C00999
:1003F0008D46704710B50446AFF300802046BDE837
:100400001040FFF70ABF0000004870477418002032
:1004100001491820ABBEFEE726000200704700002D
:1004200010B50D49002008600C4801F017FA0C487F
:1004300001F014FA0B4801F011FA0B48416AC06A46
:10044000B1EB500F03D9BDE8104000F0A7B8BDE8EC
:10045000104000F0B3B80000002001400801002067
:100460005001002098010020000001404A494A68DC
:1004700022F440324A604A6843681A434A6001687D
:100480004A6822F480724A6001684A68036942EA55
:1004900003224A6001684A6822F040724A6001689B
:1004A0004A6883681A434A6001688A6822F40062D5
:1004B0008A6001688A68C3681A438A60816A6FF03B
:1004C0007062D14214D001688A6822F070628A603A
:1004D00001688A68836A1A438A6001688A6822F020
:1004E00040528A6001688A68C36A1A438A6009E0D8
:1004F00001688A6822F070628A6001688A6822F066
:1005000040528A6001688A6822F002028A600168AB
:100510008A68037E42EA43028A6090F8201089B11B
:1005200001684A6842F400624A6001684A6822F43D
:1005300060424A6001684B68426A521E43EA423296
:100540004A6004E001684A6822F400624A60016877
:10055000CA6A22F47002CA620168CB6A828B521E98
:1005600043EA0252CA6201688A6822F400728A6011
:1005700001688A6890F8303042EA43228A60016854
:100580008A6822F480628A6001688A68406942EA67
:1005900080208860704700000023014010B50648A5
:1005A0004188491C418000F011F803F0FDFBBDE8D3
:1005B000104003F029BD00007800002010B500F0C5
:1005C00005F8BDE8104003F01FBE0000F0B52E4B4B
:1005D000D86B2E4C00B22080D3F83C1109B2618058
:1005E000D3F83C2212B2A280D3F84032284C2380A8
:1005F000DFF8A0C00CF106079CF80030002B16D0E5
:100600003B88181A244B00B218807C88611A09B202
:100610005980BC88A21A12B29A80204C2478072CE8
:1006200016D2DFE804F0152D252529292D00194DB6
:10063000BCF80460AD1D2B886C88AD884EB11844A1
:10064000388060187880A818B880761EACF80460EE
:10065000F0BD4FF47A70B3FBF0F13980B4FBF0F1E8
:100660007980B5FBF0F0B88001208CF80000F0BD77
:10067000104440425880F0BD084440429880F0BD8C
:10068000881840421880F0BD002001403200002050
:1006900016000020780000203800002070000020A4
:1006A000FEE70A8802800A8844F6E61312FB03F28A
:1006B000498811FB03F102EB4101C913B1F5004F69
:1006C00003DB47F6FF714180704711F5004F03DCF3
:1006D00048F201014180704741807047014801F0B4
:1006E0008DBA000010030020014801F087BA000015
:1006F000700300200168CAB2103A1823B2FBF3F26B
:10070000064B9B5CC3656FF30901032A02D9091DDF
:10071000816500E08165806D70470000A844000895
:1007200010B5014600208A6A8B694FF0C074002B17
:100730000ED0B3F5005F1AD062B3012A2AD0022A84
:1007400028D0032A03D1C96AC90100D5012010BDF0
:100750001AB1012A06D0022AF9D1C96AC901F6D50F
:10076000012010BDC96AA142FBD1012010BD52B1C8
:10077000012A0AD0022A06D0032AF7D1C96AA14267
:10078000F4D1012010BD012010BDC96AC901FBD5FB
:10079000012010BD012010BD704772B6FEE70000B9
:1007A0000149002008807047B800002018B50446B1
:1007B00009480088002806D06846042200F07AF82C
:1007C0000099216018BD0222684600F073F8BDF858
:1007D0000010216018BD00009800002008B5084AEC
:1007E0001288002A05D000910422694600F087F89B
:1007F00008BD00910222694600F081F808BD0000A2
:100800009800002006480649006A2431B0F900002B
:10081000B1F90010884201DB0120704700207047C9
:100820009C00002005480549006A24310088098899
:10083000884201D301207047002070479C000020AF
:1008400005480549006A243100680968884201DBCF
:1008500001207047002070479C0000200548054992
:10086000006A243100680968884201D3012070477A
:10087000002070479C00002006480649006A243189
:1008800090F9000091F90010884201DB01207047C7
:10089000002070479C00002005480549006A24316B
:1008A00000780978884201D3012070470020704702
:1008B0009C0000200346084603E010F8011B03F8E3
:1008C000011B521E92B2F8D2704770B58B1809E026
:1008D00013F8014B11F8016B05782640A5432E4310
:1008E00000F8016B521E92B2F2D270BD03E011F813
:1008F000013B00F8013B521E92B2F8D2704703E070
:1009000011F8013B00F8013B521E92B2F8D2704739
:1009100038B500210170032141700021817001214F
:10092000C170022101710021417140218171C01DFE
:10093000044600F049F8014620460091022269462B
:10094000FFF7DDFF1F21017080214170801C06A18F
:1009500000220B7800F8013B0B7803B1491C521CB4
:1009600092B2192AF5D338BD3536463878787820D2
:10097000467265654D41535445522044726976650F
:100980007200000038B50F490A68D20706D009681E
:10099000890707D5872100F8011B38BD882100F899
:1009A000011B38BD002100F8011B064C1C3CA16A4C
:1009B000FFF714FF6189009102226946FFF79FFF4C
:1009C00038BD0000B80000204FF480507047000090
:1009D00008490A68D20704D00968890705D50121AA
:1009E00004E0882100F8011B7047022100F8011B78
:1009F00070470000B800002010B509490020888029
:100A000001F10800016821F001010160016821F095
:100A10000201016000F092FABDE8104000F078BADF
:100A2000D0000020AFF3008038B500F033FA044660
:100A30000B480068C00709D0200401D500F032FC43
:100A4000A00402D500F0D2F9009038BDA004FCD576
:100A500000F0CCF9C0B2BDE8384000F059B9000050
:100A6000D800002038B50446002000F0BDFA2078F8
:100A70000090C1286AD016DC06286FD006DC062854
:100A800029D2DFE800F028507D844D7A0A284ED024
:100A900004DC08284ED009281DD163E00B285ED065
:100AA000C02818D177E0D1282DD00CDCC52845D03E
:100AB00004DCC2284ED0C3280DD143E0C92855D04C
:100AC000D02808D117E0D22825D0E02810D0E1287E
:100AD00016D0E2281CD02046812100F8011BA0423C
:100AE0005DD0001B81B22046BDE8384000F04EBA10
:100AF000012000F079FA0121204600F08FF8EEE79E
:100B0000012000F071FA0221204600F087F8E6E7A4
:100B1000012000F069FA0421204600F07FF8DEE7AA
:100B2000012000F061FA204600F03AF8D7E70120F2
:100B300000F05AFA204600F021FBD0E7204600F0F2
:100B400049F8CCE72046FFF743FFC8E7204600F00E
:100B500053FBC4E7204600F07BFBC0E714E0012014
:100B600000F042FA204600F045FAB8E7012000F014
:100B70003BFA2046FFF706FFB1E7012000F034FA08
:100B8000204600F0B9FBAAE7012000F02DFA20462C
:100B900000F0C4FBA3E72046FFF7BAFE9FE738BD8D
:100BA0007CB505468478C01C0094014601A8FFF777
:100BB000FDFD402C04D92846842100F8011B7CBD92
:100BC0002846002100F8011B22460199FFF797FEF5
:100BD0007CBD00002DE9F0410E4D2978002907D099
:100BE000002100F8011B00240B4EA6F120070CE0A9
:100BF000882100F8011BBDE8F08136F8142057F871
:100C00002410FFF77CFE641CE4B229788C42F4D3F4
:100C1000F1E70000CC0000202014002038B50D467C
:100C20000446401C01466846FFF7C0FD20460021EF
:100C300000F8011B2A460099FFF761FE38BD00004D
:100C400003480068800701D500F004B87047000031
:100C5000B80000202DE9F0412B4DA889002803D0D1
:100C6000401EA881BDE8F0812889A8810024274F73
:100C7000A7F120080CE037F8146058F82410324629
:100C80006869FFF733FE686930446861641CE4B248
:100C900068788442EFD36889401C68811A4CD5E992
:100CA00005011C34884207D3A86A6861206820F0D7
:100CB000080020600020688120680007D2D42068E6
:100CC000400714D4E86A90B180472978022901D1FD
:100CD00038B1002038B12068C00608D500F0D4FA39
:100CE00005E00120F6E7206840F010002060206851
:100CF0004007B7D5E88910B1401EE881B2E7206807
:100D000020F002002060ADE79C000020F0030020EE
:100D100030B434492B2806D10A68120720D50A6856
:100D200022F008020A600A682E4C12074FF00005F4
:100D3000A4F1080423D52C4A02F8010B226120708B
:100D4000A5800322B2EB901F10D10A6822F0100296
:100D50000A6000F03000012202EBD000A08009E020
:100D6000086840F00800086030BC7047086840F030
:100D700010000860086820F008000860F4E70A68BE
:100D8000D20605D5821CA2800A6822F010020A60F1
:100D9000A1880029E8D022780244D2B22270491EEC
:100DA0000B0410491B0CA1F10801A380096909D0AB
:100DB0000029D9D00C4A4032914211D201F8010BDE
:100DC0002161D1E721B13AB130BC822000F0D6B820
:100DD00030BC832000F0D2B830BC0348FFF742BEDD
:100DE0002561C1E7D8000020301400200C490878A4
:100DF000002808D001280BD08879401CC0B2887127
:100E00000849085C704708480068406880B270472D
:100E10008878401CC0B288700449085C70470000A4
:100E2000E400002073160020C80200207314002084
:100E30000C4A117800290AD001290CD0022905D1C9
:100E4000D179491CC9B2D171074A5054704707493A
:100E5000096848607047D178491CC9B2D170044A0A
:100E600050547047E400002073170020C80200208F
:100E70007315002005480078002805D10448006853
:100E8000C16821F00401C16070470000E400002047
:100E9000C802002030B500201B490A6811681B4BAE
:100EA000C9438C064FF4005102D4084600241C703C
:100EB0005C789D78AC4202D0084601241C705C79B5
:100EC0009D79AC4202D0084602211970197859B1B7
:100ED000012910D0022906D1D9791A7A891A202934
:100EE00001DA40F4004030BD1168C9434906FAD424
:100EF00040F4004030BDD9781A79891A2029F9DAEE
:100F000040F4004030BD0000C8020020E400002092
:100F10000748007800280AD106480068C16841F0F7
:100F20000401C16000228021034801F0A1B870478C
:100F3000E4000020C8020020000C024003480068C2
:100F4000C16821F00801C16070470000C80200209C
:100F50000748007800280AD106480068C16841F0B7
:100F60000801C16001228021034801F081B8704767
:100F7000E4000020C8020020000C02400249087072
:100F80000121014800F002B83014002038B50023D8
:100F9000144DE860002206E010F8014B0094234451
:100FA000DBB2521CD2B28A42F6D3DA43521C027030
:100FB000491C69800B480830016841F0010101605B
:100FC000016821F002010160016821F00401016063
:100FD000FFF750FFFFF7BCFFBDE838402B20FFF7BD
:100FE00027BF0000D00000200149088070470000A2
:100FF000980000202DE9F8430646FFF7D1FBDFF803
:101000005C814FF48050A8F810005548C8F82800BB
:10101000304642468178C01C11700146022208F118
:101020000400FFF747FC0146022208F10600FFF723
:1010300041FC0146022208F10800FFF73BFC014693
:1010400008F12000FFF7B2FB08F1020102780A70F4
:101050004278801C491C0A7001F1210301460422D8
:101060001846FFF727FC08F1010210F8011B117068
:1010700009B1082905D93046852100F8011BBDE8D2
:10108000F883002700241AE010F8015B009534492A
:10109000103921F8145079198FB23149303901EBE8
:1010A000840201461046FFF781FB0DB1082D04D9DB
:1010B0003046862100F8011BE1E7641CE4B298F891
:1010C00001108C42E0D30020C8F82C0098F80000F2
:1010D00030B398F80200012808D002280FD0042865
:1010E00016D03046862100F8011BC8E798F80300A7
:1010F00008B11C4800E01C48C8F82C0010E098F823
:10110000030008B1194800E01948C8F82C0007E0AE
:1011100098F8030008B1174800E01748C8F82C00F9
:10112000B8F80400784380B2B8F81010884204D9A7
:101130003046862100F8011BA1E7D8F828100844A2
:10114000C8F8180005481C30016841F00101016031
:101150003046002100F8011B91E700009C000020B0
:101160000004002079080008990800080508000814
:1011700025080008410800085D0800082DE9FC4723
:101180000746DFF86C80002188F800108678C01CC4
:101190000096002E01D0082E05D93846852100F88A
:1011A000011BBDE8FC870024DFF84890A9F1200A64
:1011B00014E010F8015B019529F814500AEB840241
:1011C00001461046FFF7F2FA0DB1082D04D9384652
:1011D000862100F8011BE4E7641CE4B2B442E8D3C2
:1011E00088F800603846002100F8011BD9E70000AC
:1011F000CC0000202014002014490A68D20706D031
:101200000A68920707D5012100F8011B7047882161
:1012100000F8011B70470D4A1C3A936A5361002382
:10122000538193810A6822F004020A600A6822F05E
:1012300010020A600A6842F008020A600A6842F076
:1012400002020A6000F8013B70470000B80000206D
:1012500000B502460B480168C90707D0006880073F
:1012600009D41046022100F8011B00BD1046882158
:1012700000F8011B00BD00F007F81046002100F83F
:10128000011B00BDB800002005480168490706D4CD
:10129000016841F0040101601C38C188C1817047B8
:1012A000B800002038B500200090124D6888002852
:1012B0001CD0E868047800942046FFF7B9FD05F1DA
:1012C00008012B2C02D1086840070AD56888401E07
:1012D0006880E868401CE860086820F00400086046
:1012E00038BD086840F00400086038BDBDE83840EB
:1012F000FFF782BBD000002038B504468578C01CBB
:1013000001466846FFF752FA01462A460098FFF761
:10131000D1FA2046002100F8011B38BD38B504463B
:101320008578C01C01466846FFF740FA01462A4608
:101330000098FFF7CAFA2046002100F8011B38BDCB
:1013400070B5714C8A6990F83C20012A19D00122AD
:1013500080F83C200A680725092A14D90368DE684A
:101360000A3A02EB42029540AE43DE600A788B688F
:101370000A3A02EB420293400268D5682B43D360DD
:1013800011E0022070BD03681E6902EB4202954025
:10139000AE431E610A788B6802EB420293400268FA
:1013A00015692B4313610268936B23F44013936315
:1013B0000268956B0B8A5B1E45EA035393630A79B7
:1013C0000B7CD21AD21C02EB82021F2393400268CC
:1013D000956B9D4395630A790B7CD21A0B88D21CBE
:1013E00002EB82029BB293400268956B2B4393639E
:1013F0008A69A24214D00268936823F47023936030
:10140000026893688C69234393600268936823F4AD
:101410004013936002689368CC692343936009E0AA
:101420000268936823F4702393600268936823F43E
:10143000401393604A7D2AB10268536843F4806385
:10144000536004E00268536823F4806353600A7DAC
:101450002AB10268536843F48053536004E0026881
:10146000536823F4805353604A68012A16D0022A35
:101470001FD0032A28D00268136A6FF30B0313628C
:101480000268136ACC6823431362204A204B046825
:101490009C4228D10C68122C21D024E002685369A8
:1014A0006FF30B03536102685369CC6823435361A4
:1014B000EBE7026893696FF30B039361026893692A
:1014C000CC6823439361E0E70268D3696FF30B03B1
:1014D000D3610268D369CC682343D361D5E75468EC
:1014E00044F48004546004689C4208D109681029BF
:1014F00001D0112903D1516841F40001516000214C
:1015000080F83C10002070BD01000F000023014056
:10151000002001407047000018B50022009290F8AA
:101520003C10012907D0012180F83C1001688B682C
:10153000DB0702D014E0022018BD8B6843F00103E2
:101540008B602D492D4B0968B1FBF3F101EB410193
:10155000009102E00099491E009100990029F9D1FB
:1015600001688B68DB073CD0036C42F20104A343A3
:1015700043F480530364036CDB0500D4426480F8B9
:101580003C206FF004020A601D494968C90613D067
:101590000068816811F4401F21D00021426842F3A5
:1015A0008022521C174B984223D111B30AB3816891
:1015B00041F4800181601CE00068816811F4401FE3
:1015C0000BD00021426842F38022521C89B182B1C3
:1015D000816841F4800181600BE00121F2E7012183
:1015E000DCE7016C41F010010164416C41F0010144
:1015F0004164002018BD00009400002040420F000C
:10160000002301400020014018B50022009290F80C
:101610003C10012907D0012180F83C1001688B683B
:10162000DB0702D014E0022018BD8B6843F00103F1
:101630008B602F492F4B0968B1FBF3F101EB41019E
:10164000009102E00099491E009100990029F9D10A
:1016500001688B68DB0741D0036C42F20104A343AD
:1016600043F480530364036CDB0500D4426480F8C8
:101670003C206FF004020A6001684A6842F0800270
:101680004A601D494968C90613D00068816811F491
:10169000401F21D00021426842F38022521C174B88
:1016A000984223D111B30AB3816841F4800181606B
:1016B0001CE00068816811F4401F0BD000214268D3
:1016C00042F38022521C89B182B1816841F48001C9
:1016D00081600BE00121F2E70121DCE7016C41F0C0
:1016E00010010164416C41F001014164002018BD0A
:1016F0009400002040420F000023014000200140E0
:1017000078B50024009490F83C20012A19D00122D9
:1017100080F83C200A680725092A14D90368DE6886
:101720000A3A02EB42029540AE43DE600A788B68CB
:101730000A3A02EB420293400268D5682B43D36019
:1017400011E0022078BD03681E6902EB4202954059
:10175000AE431E610A788B6802EB42029340026836
:1017600015692B4313614A681F25072A13D20368A2
:101770005E6B521E02EB82029540AE435E630A88A6
:1017800093B20A79521E02EB820293400268556BB3
:101790002B43536328E00D2A13D203681E6BD21F1C
:1017A00002EB82029540AE431E630A8893B20A7927
:1017B000D21F02EB820293400268156B2B43136326
:1017C00012E00368DE6A0D3A02EB82029540AE43F6
:1017D000DE620A8893B20A790D3A02EB82029340E4
:1017E0000268D56A2B43D362174A184B05689D429D
:1017F00006D10D68122D03D1556845F4800555605A
:1018000005689D421BD10B68102B01D0112B16D1FE
:10181000536843F400035360096810290FD10C4941
:101820000C4A0968B1FBF2F101EB8101490000911A
:1018300002E00099491E009100990029F9D180F831
:101840003C40002078BD0000002301400020014002
:101850009400002040420F007047704770B5044666
:1018600020680568466805F0020106F0200200299C
:101870002AD04AB3216CC90603D4216C41F400710B
:101880002164816811F0405F17D1217EA9B9C16A36
:1018900011F4700F02D0816849050ED4416821F01F
:1018A00020014160206C20F480702064206CC00412
:1018B00003D4206C40F0010020642046FFF7CCFFE9
:1018C00021686FF01200086005F0040006F0800146
:1018D00090B389B3206CC00603D4206C40F4005050
:1018E00020642068816811F4401F1ED1816B11F4BF
:1018F000401F02D08168490517D44168490514D4B6
:10190000816811F0405F10D1217E71B9416821F0EA
:1019100080014160206C20F480502064206CC00560
:1019200003D4206C40F0010020642046FFF7F2FD54
:1019300021686FF00C00086005F0010006F040011E
:1019400078B171B120680068C0070AD0206C40F4FB
:1019500080302064204600F044F821686FF00100D8
:10196000086005F0200006F0806100280ED00029F4
:101970000CD0606C40F00200606420686FF02005BD
:1019800005602046FFF769FF2068056070BD70B5EF
:1019900004460026002C03D0206C002510B107E07F
:1019A000012070BD204600F01DF8656484F83C50AD
:1019B000206CC00610D4206C20F4885040F0020047
:1019C00020642046FEF752FD6564206C20F0020082
:1019D00040F00100206400E0012684F83C503046CD
:1019E00070BD704770B586B00446142101A8FEF79B
:1019F000B2FC394B374E21680024374A143B03258B
:101A00003648B14220D1116841F4807111601168EB
:101A100001F480710091196841F0010119601968A1
:101A200001F001010091022101910295039401A9A5
:101A300000F036FA00220221122000F091FB122061
:101A400000F080FB06B070BD254EB1421FD1116879
:101A500041F400711160116801F40071009119687E
:101A600041F001011960196801F0010100910421A0
:101A700001910295039401A900F012FA00220221BB
:101A8000122000F06DFB122000F05CFBDAE7154E2F
:101A9000B142D7D1116841F480611160116801F43D
:101AA00080610091196841F001011960196801F025
:101AB00001010091092101910295039401A900F00F
:101AC000EFF900220221122000F04AFB122000F060
:101AD00039FBB7E7002001404438024000000240D3
:101AE000002101400022014018B50022009290F828
:101AF0003C10012907D0012180F83C1001688B6857
:101B0000DB0702D014E0022018BD8B6843F001030C
:101B10008B603449344B0968B1FBF3F101EB4101AF
:101B2000009102E00099491E009100990029F9D125
:101B300001688B68DB074BD0036C40F20164A34360
:101B400043F4807303644B685B0505D5036C23F491
:101B5000005343F480530364036CDB0404D5436CEB
:101B600023F00603436400E0426480F83C201F4AEF
:101B70006FF022030B605168CA061D4907D0006848
:101B800088422DD1816811F0405F1CD028E00068A8
:101B900088420FD0174A904203D1D1F80423D206CD
:101BA00008D0154A90421BD1D1F8041301F01F014F
:101BB000102915D2816811F0405F11D1816841F080
:101BC000804181600CE0816841F08041816007E0E4
:101BD000016C41F010010164416C41F0010141646C
:101BE000002018BD9400002040420F000023014057
:101BF0000020014000210140002201402DE9F8436E
:101C000004464FF00009CDF800906F484FF416518C
:101C10000068B0FBF1F7A56D2E6894F85C0008220F
:101C200002FA00F1314210D02068016849070CD552
:101C3000016821F00401016094F85C0002FA00F1EF
:101C4000A960606D40F00100606594F85C104FF091
:101C5000010808FA01F0304208D0216849690906F4
:101C600004D5A860606D40F00200606594F85C10D7
:101C700004208840304208D021680968890704D5CB
:101C8000A860606D40F00400606594F85C1010205E
:101C90008840304220D02168096809071CD5A86017
:101CA0002068016849030CD50068000304D4216C46
:101CB00091B1204688470FE0A16C69B12046884762
:101CC0000AE00168C90503D4016821F00801016038
:101CD000216C09B12046884794F85C102020884088
:101CE00030424CD021680968C90648D5A86094F8EC
:101CF000350005280BD020680168490330D50068FD
:101D0000000328D4616C51B32046884737E020682F
:101D1000016821F0160101602068416921F080010D
:101D20004161206C08B9A06C20B12068016821F0E5
:101D30000801016094F85C103F208840A86084F896
:101D4000358084F83490216D00293BD001B02046C5
:101D5000BDE8F0430847E16B09B1204688470EE033
:101D60000168C90507D4016821F01001016084F8F9
:101D7000358084F83490E16B09B120468847606D66
:101D800000281FD0606DC00714D0052084F83500EE
:101D90002068016821F0010101600098401C00905A
:101DA000B84203D820680068C007F6D184F83580AF
:101DB00084F83490E16C002904D001B02046BDE8DD
:101DC000F0430847BDE8F883940000202DE9F04176
:101DD000044600F055F905465CB1022084F8350050
:101DE000002684F834602068016821F00101016058
:101DF0000DE00120BDE8F08100F042F9401B05280C
:101E000005D920206065032084F83500F2E72068BA
:101E10000068C007F0D121680A6820480240D4E970
:101E200001031843D4E903352B431843636918436E
:101E3000A3691843E3691843236A18431043626A8D
:101E4000042A03D1D4E90B231A4310430860206805
:101E5000406920F00700656A2946054301270429E7
:101E60000DD1A06A0543E06A48B12046FEF758FC50
:101E700028B14020606584F835700120BAE72068F9
:101E800045612046FEF736FC94F85C203F219140E6
:101E90008160666584F835700020ABE73F8010F004
:101EA0002DE9F84F0022DFF89C914FF0010803273D
:101EB0004FF00F0C09F1040AA9F1040B08FA02F51E
:101EC0000B682B40AB426ED10C7904F00304012C5B
:101ED00001D0022C15D18668540007FA04FE26EAC8
:101EE0000E06D1F80CE00EFA04FE4EEA060EC0F81B
:101EF00008E04468AC430D79C5F3001595402543CF
:101F000045600C79E443A40708D0C568540007FA7B
:101F100004F6B5438E68A6402E43C6600C7904F0E3
:101F20000304022C11D1D40800EB8406356A54074F
:101F3000E40E0CFA04FE25EA0E05D1F810E00EFAC4
:101F400004FE4EEA050EC6F820E00568540007FAC4
:101F500004F6B5430E7906F00306A6402E4306604C
:101F60004C6814F4403F67D0374C256845F48045F1
:101F70002560246804F480440094344C22F0030566
:101F80002E19D6F8085894074FEA147E0CFA0EF46E
:101F9000A5432F4CA04201D1002424E02D4CA042A7
:101FA00002D101241FE047E02B4CA04201D10224C2
:101FB00019E02A4CA04201D1032414E0284CA0428D
:101FC00001D104240FE0274CA04201D105240AE0EE
:101FD000254CA04201D1062405E0244CA04201D1A9
:101FE000072400E0082404FA0EF42C43C6F808483D
:101FF000D9F800409C434D68ED0200D51C43C9F858
:102000000040DAF800409C434D68AD0200D51C4307
:10201000CAF80040DBF800409C434D68AD0300D592
:102020001C43CBF80040074D083D2C689C434E688C
:10203000F60300D51C432C60521C102AFFF43EAF5F
:10204000BDE8F88F083C01404438024000300140B0
:10205000000002400004024000080240000C024060
:10206000001002400014024000180240001C024010
:10207000002A01D081617047090481617047000026
:10208000014880687047000088000020024881688D
:1020900002781144816070478800002010B50B4819
:1020A000016841F400710160016841F480610160E0
:1020B000016841F480710160032000F071F8002094
:1020C00000F006F800F026F8002010BD003C0240A9
:1020D00070B504460D4D4FF47A712878B1FBF0F0DD
:1020E0000B490968B1FBF0F000F0E2FB08B10120F8
:1020F00070BD102C07D200222146501E00F030F88F
:102100006C60002070BD012070BD000088000020C0
:102110009400002008B50A48016841F4804101603C
:10212000006800F4804000900548001F016841F0FD
:1021300080510160006800F08050009008BD0000F0
:1021400044380240002809DB00F01F0201219140C1
:102150004009800000F1E020C0F800117047000045
:10216000F0B40D460D4B1B68C3F30223C3F1070403
:10217000042C00D90424191D072901D2002300E0F2
:10218000DB1E012606FA04F1491E294099409E40B3
:10219000761E16403143F0BC01F0F5BD0CED00E0B9
:1021A00000F00701054A10684FF6FF03184040EAA7
:1021B0000120034908431060704700000CED00E067
:1021C0000000FA052DE9F04704460D46002C13D017
:1021D000DFF82891D9F80000EFB200F00700A8421C
:1021E0000CD289F80070D9F8000000F00700A8426E
:1021F00004D00120BDE8F0870120FBE72068404EB5
:10220000810712D5400703D5306840F4E0503060B4
:102210002078000703D5306840F4604030603068B3
:10222000A16820F0F000084330602078C00731D06A
:10223000334960680839012808D002280BD00328E8
:1022400009D0096889070BD40120D3E709688903FD
:1022500006D40120CEE70968890101D40120C9E72D
:10226000316821F0030101433160FFF709FF804627
:1022700041F2883A07E0FFF703FFA0EB0800504562
:1022800001D90320B6E73068616800F00C00B0EBBC
:10229000810FF0D1D9F8000000F00700A84209D959
:1022A00089F80070D9F8000000F00700A84201D0BA
:1022B00001209FE72078400705D53068E16820F4C9
:1022C000E050084330602078000706D53068216967
:1022D00020F4604040EAC100306000F03FF831680F
:1022E000084AC1F30311515CC84007490860074818
:1022F0000068FFF7EDFE00207CE70000003C024094
:1023000008380240B0440008940000208C000020EF
:1023100001480068704700009400002000B5FFF7F6
:10232000F7FF04490968044AC1F38221515CC8409F
:1023300000BD000008380240C044000800B5FFF7A7
:10234000E7FF04490968044AC1F34231515CC840BF
:1023500000BD000008380240C044000810B517480E
:10236000006810F00C01164816D04310042912D052
:10237000082911D1114C241F216801F03F02216866
:1023800049020AD52068C0F38810A0FB030100238E
:10239000FDF76AFF09E0184610BD21680023C1F36C
:1023A0008811A1FB0001FDF75FFF2168C1F3014126
:1023B000491C4900B0FBF1F010BD00000838024094
:1023C0000024F4002DE9F84F0446002C13D02078A7
:1023D000DFF8A083C007A8F1040556D008F1040077
:1023E0000168C1F3810101290CD00068C0F38100AC
:1023F000022803D00DE00120BDE8F88FD8F80000D6
:10240000400206D5286880033FD5606870BB012074
:10241000F2E76068B0F5803F10D0B0F5A02F12D081
:10242000286820F480302860286820F48020286004
:102430006068E0B1FFF724FE064614E0286840F427
:1024400080302860F4E7286840F4802028602868FD
:1024500040F480302860EBE7FFF712FE801B642811
:1024600001D90320C8E728688003F5D50DE0FFF700
:1024700007FE064606E0FFF703FE801B642801D92D
:102480000320B9E728688003F5D42078BA4F800785
:102490004FF0000948D5B748001D016811F00C0F36
:1024A00008D00068C0F38100022813D1D8F80000DA
:1024B00040020FD42868800704D5E068012801D0C5
:1024C000012099E72868216920F0F80040EAC1005E
:1024D000286029E0E068B8B101203860FFF7D0FD3E
:1024E000064606E0FFF7CCFD801B022801D9032039
:1024F00082E728688007F5D52868216920F0F80070
:1025000040EAC10028600FE0C7F80090FFF7B8FD6F
:10251000064606E0FFF7B4FD801B022801D9032020
:102520006AE728688007F5D42078000729D5DFF806
:1025300044A2924861690AF1700A89B101210160DF
:10254000FFF79EFD064606E0FFF79AFD801B022876
:1025500001D9032050E7DAF800008007F4D510E035
:10256000C0F80090FFF78CFD064606E0FFF788FDF7
:10257000801B022801D903203EE7DAF8000080071B
:10258000F4D42078400778D54FF0000A79483C30E1
:102590000068C0000BD477483C30016841F080519E
:1025A0000160006800F0805000904FF0010ADFF8F1
:1025B000D0B1DBF80000C00514D4DBF8000040F413
:1025C0008070CBF80000FFF75BFD064606E0FFF7E2
:1025D00057FD801B022801D903200DE7DBF800001E
:1025E000C005F4D5634EA0686C3601280FD00528CD
:1025F00012D0306820F001003060306820F0040014
:102600003060A068F8B1FFF73BFD834617E0306803
:1026100040F001003060F4E7306840F004003060C2
:10262000306840F001003060EBE7FFF729FDA0EBD8
:102630000B0141F28830814201D90320DCE6306889
:102640008007F2D510E0FFF71BFD834609E0FFF796
:1026500017FDA0EB0B0141F28830814201D9032024
:10266000CAE630688007F2D4BAF1010F05D14148BB
:102670003C30016821F080510160A069C0B33D4940
:10268000091D09684FF0FF36C1F38101022946D0C8
:10269000022805D0C7F86090FFF7F2FC04463AE044
:1026A000C7F86090FFF7ECFC814607E0FFF7E8FC15
:1026B000A0EB0900022801D903209DE628688001CB
:1026C000F4D4D4E907010843616AA26A890106EBE0
:1026D000520241EA0241084394F82C1040EA01609A
:1026E000C8F8000001203866FFF7CAFC044607E07E
:1026F0003DE0FFF7C5FC001B022801D903207BE663
:1027000028688001F5D532E0FFF7BAFC001B0228EB
:1027100001D9032070E628688001F5D427E001285C
:1027200023D0D8F80000E26900F4800191421AD168
:10273000226A00F03F01914215D147F6C071626AEA
:102740000140B1EB821F0ED1A26A00F4403106EBCA
:102750005202B1EB024F06D194F82C1000F07060D9
:10276000B0EB016F03D0012046E6012044E60020D3
:1027700042E600000438024000004742800E474213
:102780000070004070B50446002C09D0606A002536
:1027900040B125616561A56294F8510040B10CE03B
:1027A000012070BD6068B0F5827FF4D0E561F2E78A
:1027B00084F85050204600F045F8022084F851007B
:1027C0002068016821F040010160A088218900F49F
:1027D000827001F404410843A18901F400610843B7
:1027E000217C01F002010843217D01F00101084331
:1027F000218B01F400710843217F01F03801084367
:1028000094F8201001F080010843218D01F400515B
:10281000084321680860A069042101EA104094F887
:10282000241001F010010843216848602068C16944
:1028300021F40061C1616565012084F85100002028
:1028400070BD000010B586B00446142101A8FDF744
:1028500082FD14492068884221D100211248026873
:1028600042F480420260006800F4804000900E480C
:102870001038026842F002020260006800F00200B4
:1028800000904FF4604001900220029003910320D9
:1028900004900520059001A90448FFF701FB06B04C
:1028A00010BD0000003800404038024000040240E3
:1028B00010B5401EB0F1807F01D3012010BD4FF054
:1028C000E02460610F21601701F05DFA0020A06133
:1028D00007202061002010BD10B590F83C20012A8F
:1028E00022D0012280F83C20CA6800238C6822F4A0
:1028F000407222434C6822F4806222430C6822F426
:10290000006222430C6922F4805222434C6922F473
:1029100000522243C96922F480420A4301684A6492
:1029200080F83C30002010BD022010BD70B590F83A
:102930003C20012A31D0012680F83C60022280F838
:102940003D2002685468936824F070050C682C439D
:102950005460134C0268A24214D0B2F1804F11D0DF
:10296000104CA2420ED0104CA2420BD00F4CA242EF
:1029700008D00F4CA24205D00E4CA24202D00E4C01
:10298000A24204D123F080034968194391603C308E
:10299000467000210170002070BD022070BD000053
:1029A000000001400004004000080040000C00400E
:1029B00000040140004001400018004010B50446EA
:1029C000002C03D094F83D0010B107E0012010BDA9
:1029D000002084F83C00204600F016F8022084F81D
:1029E0003D00211D206800F09BFF01203D346072F6
:1029F0006070A070E07020716071A071E071207251
:102A00002070002010BD0000F0B587B004461421EE
:102A100002A8FDF7A0FC274920680024884233D192
:102A20002548016841F001010160006800F00100E3
:102A3000019021481438016841F0100101600068DC
:102A400000F010000190802002900226039604946A
:102A5000059401250695194F02A93846FFF720FA7B
:102A6000E8030290039604950594069502A938465A
:102A7000FFF716FA002201211920FFF771FB192038
:102A8000FFF760FB07B0F0BD0D498842FAD10A4854
:102A9000001F016841F020010160006800F0200083
:102AA0000190002203213720FFF75AFB3720FFF760
:102AB00049FBE7E7000001404438024000100240B3
:102AC0000014004090F83D10012901D0012070470A
:102AD000022180F83D100168CA6842F00102CA6014
:102AE00000681449884214D0B0F1804F11D01249C7
:102AF00088420ED0114988420BD01149884208D033
:102B00001049884205D01049884202D00F498842B6
:102B100009D1816801F00701062908D0016841F058
:102B20000101016003E0016841F001010160002042
:102B30007047000000000140000400400008004011
:102B4000000C00400004014000400140001800401B
:102B500070B50446002594F83C00012817D00126E2
:102B600084F83C60022084F83D002068826822F0EE
:102B7000770222F47F4282600868502838D00DDC4A
:102B8000202853D005DC90B3102811D14EE002204C
:102B900070BD30284AD040280AD13DE0602831D0AD
:102BA00070280CD0B0F5805F03D0B0F5005F12D074
:102BB00001253C34667000202070284670BDCB682B
:102BC000D1E90121206800F019FF2068816841F0F7
:102BD00077018160EDE7CB68D1E90121206800F041
:102BE0000DFF2068816841F480418160E1E71DE0CC
:102BF000CA684968206800F0E3FF5021206800F0AF
:102C000007FFD6E7CA684968206800F0EAFF60213C
:102C1000206800F0FDFECCE7CA684968206800F033
:102C2000CFFF4021206800F0F3FEC2E72268014692
:102C3000104600F0EDFEBCE72DE9F04304460D46DA
:102C40001646002794F83C0001280ED04FF00108EA
:102C500084F83C80022084F83D006868B94638B1A9
:102C600001280BD00127BFB155E00220BDE8F08359
:102C70002068816821F47F418160F4E7E96829B127
:102C800084F83D8084F83C900120EFE72B69AA6826
:102C9000206800F0B3FEE6E736B1042E12D0082E0D
:102CA0001ED00C2E37D129E0286828B12068816910
:102CB00041F0800181612EE02068816921F080016E
:102CC000816128E0286828B12068816941F40041C9
:102CD000816120E02068816921F4004181611AE06E
:102CE000286828B12068C16941F08001C16112E003
:102CF0002068C16921F08001C1610CE0286828B119
:102D00002068C16941F40041C16104E02068C169E3
:102D100021F40041C16184F83D8084F83C9038463C
:102D2000A4E70000F0B587B00446142102A8FDF71F
:102D300012FB14492068884221D1002412480168FE
:102D400041F010010160006800F0100001904FF4A4
:102D50007C50029002250395049505940126069661
:102D60000A4F02A93846FFF79BF8680302900395C3
:102D700004940594069602A93846FFF791F807B027
:102D8000F0BD000000000140303802400010024059
:102D900070B504460D46002694F83C0001280FD07B
:102DA000012084F83C006AB1042A1FD0082A32D0DE
:102DB0000C2A44D00126002084F83C00304670BD27
:102DC000022070BD2946206800F02AFE2068816933
:102DD00041F0080181612068816921F0040181616D
:102DE000206881692A6911438161E4E729462068E6
:102DF00000F04AFE2068816941F400618161206829
:102E0000816921F480618161206881692A6941EAD0
:102E100002218161CFE72946206800F06FFE20681B
:102E2000C16941F00801C1612068C16921F0040154
:102E3000C1612068C1692A691143C161BBE72946A4
:102E4000206800F093FE2068C16941F40061C1610F
:102E50002068C16921F48061C1612068C1692A6963
:102E600041EA0221C161A6E710B50446002C03D057
:102E700094F83D0010B107E0012010BD002084F857
:102E80003C00204600F015F8022084F83D00211D8A
:102E9000206800F045FD01203D3460726070A07034
:102EA000E07020716071A071E071207220700020CC
:102EB00010BD704770B50446002C04D094F8410052
:102EC000002510B106E0012070BD84F84050204676
:102ED00000F024F8242084F841002068C16821F41F
:102EE0000051C160204600F08FFE2068016921F486
:102EF000904101612068416921F02A014161206807
:102F0000C16841F40051C1606564202084F841002B
:102F100084F842006563002070BD00002DE9F04197
:102F200086B00546142101A8FDF715FA2C4928683A
:102F3000884251D100262B48016841F400310160DC
:102F4000006800F40030009026481038016841F015
:102F500008010160006800F0080000906020019006
:102F6000022002900121039104900720059001A9FD
:102F70001D48FEF795FF1E4C1C4820604FF000686E
:102F8000C4F80480A660E660071527616661A66143
:102F90008015E061266266622046FEF717FF08B1E1
:102FA000FDF7FBFBEC63A5631048114C183060344F
:102FB0002060C4F804804020A060E660276166615C
:102FC000A661E661266266622046FEF7FFFE08B152
:102FD000FDF7E3FBAC63A56306B0BDE8F08100003C
:102FE0000044004040380240000C0240886002402B
:102FF00010030020FEE7000070B58CB04249872026
:103000000880424944F239200880414943F6C30010
:103010000880404943F2084008803F4942F6695021
:1030200008803E4941F2071008803D494FF4FA708C
:1030300008803C4943F2333008803B490D2008802A
:103040003A494FF4FA50088039493E2008803949FE
:10305000A5200880384940F2C170088037490880AF
:10306000374940100880374947F6FF7008803649D5
:1030700042F6E060088035494FF4FA600880002489
:10308000089409940A940B9420216846FDF763F98B
:1030900030482F4901604FF4803646608460012536
:1030A0000561047680F82040C4622B498162C90220
:1030B000C160C56180F830404561FEF768FC08B129
:1030C000FDF76BFB089509950A9408A92148FEF7BE
:1030D00017FB08B1FDF761FB00950195049502947B
:1030E0004FF48010079006968DF815408DF8144027
:1030F000039469461748FEF723F9002801D0FDF72D
:103100004CFB0CB070BD000014000020200000201B
:103110001A0000201C0000201E00002018000020C3
:103120005400002050000020520000206C000020BD
:103130006E0000204E0000204600002048000020C5
:103140004A0000204C000020680000206A00002097
:1031500000200140080100200100000FF0B58DB0F3
:10316000002409940A940B940C94202101A8FDF7E3
:10317000F2F81F481D4901604FF4803646608460B4
:1031800001250561047680F82040C46219498162F6
:10319000C902C160C56180F830404561FEF7F7FBA8
:1031A00008B1FDF7FAFA022709970A950B9409A9C5
:1031B0000F48FEF7A5FA08B1FDF7EFFA019702955F
:1031C000059503944FF48010089007968DF81940E8
:1031D0008DF81840049401A90548FEF7B1F80028BD
:1031E00001D0FDF7DAFA0DB0F0BD0000002101407A
:1031F000500100200100000FF0B58DB000240994AB
:103200000A940B940C94202101A8FDF7A4F82348FC
:10321000214901604FF480364660846001250561D4
:10322000047680F82040C4621D498162C902C160F1
:10323000C56180F830404561FEF7A9FB08B1FDF794
:10324000ACFA032709970A950B9409A91348FEF7CE
:1032500057FA08B1FDF7A1FA0197029502250595E5
:103260000394E804089007968DF819408DF81840EB
:10327000049401A90948FEF763F808B1FDF78DFA37
:103280000194029501A90548FEF75AF8002801D0DB
:10329000FDF783FA0DB0F0BD002201409801002037
:1032A0000100000F08B50D48016841F400110160EC
:1032B000006800F400100090002211461020FEF774
:1032C0004FFF1020FEF73EFF002211461120FEF7AF
:1032D00047FFBDE808401120FEF734BF30380240F8
:1032E000F0B587B0142102A8FDF735F800242E4868
:1032F000016841F080010160016801F080010191E5
:10330000016841F001010160016801F001010191D2
:10331000016841F010010160016801F010010191A4
:10332000016841F002010160016801F002010191B0
:10333000016841F004010160016801F0040101919C
:10334000016841F008010160006800F00800019088
:10335000164F4FF48055002229463846FEF788FE66
:10336000134E00229C213046FEF782FE0295012575
:1033700003950494059402A93846FEF791FD4FF495
:10338000E07002900394049402A90A48FEF788FDB5
:103390009C20029003950494059402A93046FEF700
:1033A0007FFD07B0F0BD000030380240000402404D
:1033B000000C02400008024010B511480F4901609E
:1033C0004FF482714160002181604FF40062C2605D
:1033D000016101224261520282612822C2610162BE
:1033E000416281620A21C162FFF7CCF9002803D053
:1033F000BDE81040FDF7D1B910BD00000038004015
:10340000E001002070B59AB0002416941794189427
:103410001994149415941C210DA8FCF79CFF1421F9
:1034200008A8FCF798FF20216846FCF794FF3C4869
:103430003A49016044606026866041F28241C16081
:103440000461446180218161FFF7B8FA08B1FDF79A
:10345000A4F94FF48055169516A93148FFF778FB6B
:1034600008B1FDF79AF92E48FFF7FEFC08B1FDF709
:1034700094F920201490159414A92948FFF756FABE
:1034800008B1FDF78AF90D960E940F9410941194DB
:103490001294139400220DA92148FFF779FC08B17A
:1034A000FDF77BF904220DA91D48FFF771FC08B157
:1034B000FDF773F908220DA91948FFF769FC08B157
:1034C000FDF76BF90C220DA91548FFF761FC08B157
:1034D000FDF763F90120089009900A940B940C946D
:1034E0000C2208A90E48FFF7A7FB08B1FDF755F914
:1034F000009401940294BE20039004954FF4005070
:103500000590079469460648FFF7E6F908B1FDF70C
:1035100044F90348FFF706FC1AB070BD00000140F3
:10352000380200201CB50024009401940D480C4979
:1035300001600121416084604AF21041C1608461F0
:10354000FFF73CFA08B1FDF728F9009401946946A9
:103550000448FFF7EBF9002801D0FDF71EF91CBD68
:10356000001400408002002010B50C480A49016098
:103570004FF4E131416000218160C16001610C22A2
:1035800042618161C161FFF795FC002803D0BDE86D
:103590001040FDF702B910BD00440040C8020020F1
:1035A000FEE7FEE7F0B5081A91880E04D1880D04F5
:1035B000B2F900304343B2F9024044439068C11766
:1035C000001941EBE4714FEAE677341A77EB010416
:1035D00001DA966009E0EC17B0EB050C71EB04041E
:1035E00001DA2C4600E004469460DA17C31841EB78
:1035F0000204F01AA74101DA334604E0E817591B28
:10360000844100DA2B461814F0BD00001549086A01
:1036100041F2555290430862486C40F400404864BF
:10362000114A00209060114A1060114A1060114A3E
:103630001080114A50801080104A50801080C96A52
:103640000F4A49109180518011800E4A012111705A
:103650000D4908800D4908800D48016841F00801B6
:103660000160704700000140F00000206000002071
:103670006400002030000020060000202C00002004
:1036800022000020700000200A0000205C000020C2
:10369000140C02400548016A41F25552114301627F
:1036A000416C41F40041416470470000000001405A
:1036B00070B50C4CE06A0C4D01B2B5F9000000F099
:1036C000E9FD6063E06A01B2B5F9020000F0E2FDD5
:1036D000A063E06A01B2B5F9040000F0DBFDE0632D
:1036E00070BD00000000014022000020F0B50388FA
:1036F000548813FB04F34488158814FB05F4234411
:10370000DB134FF40046741EE7437D1CB34201DB1C
:103710000C8004E0BB4201DC0D8000E00B8043889C
:10372000B2F802C013FB0CF30088128810FB02F001
:10373000181AC013B04201DB4C80F0BDB84201DC66
:103740004D80F0BD4880F0BD7047704710B504460D
:103750000A46B4F90230B4F9000046F6D96100F027
:1037600099FDB4F9024000EB640109B2C0EB6400BA
:1037700000B24FF48044002931DA00280EDA01EB60
:10378000D17304EB630300EBD074A3EB64031380E9
:1037900018445080581A9080052010BD002B0FDD72
:1037A00003EBD3704010C0F5804001EBD17400EB07
:1037B00064001080401A908018445080032010BD8F
:1037C00003EBD37104EB610100EBD074A1EB640156
:1037D000118008445080C01A9080042010BD002839
:1037E00020DA002B0EDD03EBD37104EB610100EB5B
:1037F000D074A1EB6401118008445080C01A9080FD
:10380000012010BD03EBD3704010C0F5804001EBE8
:10381000D17400EB64001080401A908018445080EE
:10382000062010BD01EBD17304EB630300EBD074F1
:10383000A3EB6403138018445080581A9080022030
:1038400010BDFEF723BC000030B593B0302107A8AF
:10385000FCF781FD142102A8FCF77DFD00251D4821
:10386000016841F080510160006800F080500190D3
:103870001948016841F480410160006800F480400B
:103880000190012007900004089002240D9480010B
:103890000E9004200F90A8201090119407201290F1
:1038A00007A8FEF78FFD08B1FCF777FF0F20029005
:1038B000039404954FF4A05005904FF48050069067
:1038C000052102A8FEF77EFC002801D0FCF765FF69
:1038D00013B030BD4038024000700040024801681B
:1038E00041F470010160704788ED00E00349002059
:1038F000086103484188491C41807047000001402D
:103900008400002004490020086004480188491C04
:10391000018000F0DBBA0000101400408400002099
:103920002DE9F04102682A4D2A4E2B4FDFF8ACC03A
:103930002B4B4FF08048A84209D0404507D0B042F9
:1039400005D0B84203D0604501D0984203D122F09F
:1039500070044A682243A8421BD0404519D0B042A7
:1039600017D0B84215D0604513D0984211D01D4CE5
:10397000A0420ED01C4CA0420BD01C4CA04208D040
:103980001B4CA04205D01B4CA04202D01A4CA042B6
:1039900003D122F44074CA6822434C6922F08002A9
:1039A000224302608A68C2620A688262A84201D029
:1039B000984201D109690163012141610169C90787
:1039C00003D0016921F001010161BDE8F08100002F
:1039D000000001400004004000080040000C0040CE
:1039E0000004014000400140004401400048014003
:1039F00000180040001C00400020004010B5846802
:103A000024F47F4442EA03220A432243826010BD29
:103A1000826822F070020A4342F007018160704719
:103A2000F0B5056A026A22F0010202624368826907
:103A300022F0700222F003020C68144325F0020504
:103A40008A682A430E4E0F4FB04201D0B84205D1CA
:103A500022F00805CA682A4322F00402B04201D0CD
:103A6000B84207D123F4807323F400734D691D43DA
:103A70008B692B4343608461496841630262F0BDF6
:103A80000000014000040140F0B5026A036A23F01F
:103A9000100303624368846924F4E04424F440740E
:103AA0000D6844EA052422F020028D6842EA0512DE
:103AB000104D114EA84201D0B04206D122F0800232
:103AC000CF6842EA071222F04002A84201D0B04279
:103AD00009D123F4806323F400634D6943EA85032D
:103AE0008D6943EA850343608461496881630262AA
:103AF000F0BD00000000014000040140F0B5026A82
:103B0000036A23F4807303624368C46924F0700479
:103B100024F003050C682C4322F400728D6842EAFD
:103B20000522104D104EA84201D0B04206D122F419
:103B30000062CF6842EA072222F48062A84201D0E4
:103B4000B04209D123F4805323F400534D6943EA72
:103B500005138D6943EA05134360C4614968C16375
:103B60000262F0BD000001400004014030B5036A6C
:103B7000026A22F4805202624268C46924F4E0447A
:103B800024F440740D6844EA052423F400538D683E
:103B900043EA0533084DA84202D0084DA84204D19B
:103BA00022F480424D6942EA85124260C46149684C
:103BB0000164036230BD00000000014000040140C8
:103BC00010B5036A046A24F001040462846924F0D5
:103BD000F00444EA021423F00A020A4384610262F8
:103BE00010BD10B5036A046A24F0100404628469ED
:103BF00024F4704444EA023223F0A00343EA0111A2
:103C00008261016210BD00002DE9F0410446206888
:103C10000169E26821F4405111430161A168206902
:103C2000E26901436069104301432068C26849F2B8
:103C30000C639A430A43C26020684169A26921F477
:103C400040711143416133492068884202D03249B2
:103C5000884202D1FEF772FB01E0FEF75FFBE169EB
:103C60000023192764253226B1F5004F28D061685A
:103C70008B0F8A00A0FB0701FCF7F6FA0146B0FBA8
:103C8000F5F07A42504301EB800006EB0010B0FBE8
:103C9000F5F000F0F002B1FBF5F002EB0012B1FB21
:103CA000F5F07B42584301EB800006EB0010B0FBBF
:103CB000F5F0216800F00F0010448860BDE8F08145
:103CC00061684A18A0FB07015B41FCF7CDFA014689
:103CD000B0FBF5F00201B1FBF5F06FF018035843AB
:103CE00001EB800006EBC000B0FBF5F000F0F8003F
:103CF00002EB4002B1FBF5F0584301EB800006EB0C
:103D0000C000B0FBF5F0216800F0070010448860A7
:103D1000D4E70000001001400014014010B5134822
:103D2000FDF7E2FE1248FDF7DFFE1248FDF7DCFE6C
:103D30000E48FDF769FC0E48FDF7EEFB0D48FDF758
:103D4000EBFB0D48FEF7BEFE0C48FEF7BBFE0A4932
:103D50006FF08000096808610948016841F040017E
:103D60000160016821F48061016010BD080100203C
:103D7000500100209801002038020020800200201D
:103D800000380040FEE70907090E002804DB00F1B7
:103D9000E02080F80014704700F00F0000F1E020F0
:103DA00080F8141D7047000070B52B4A2B48012184
:103DB00013780068012B04D06FF080030361117049
:103DC00070BD0069264AC04300064FF0000301D4CD
:103DD000117000E01370234844F23925224CB0F9E9
:103DE0000000A84201DD217000E0237041F20716B7
:103DF0001E4DB04201DA297000E02B701078217856
:103E00000144287801441A4800780844194909787F
:103E10000844194940B20870184BC0B1FFF7F6FBCF
:103E2000174968200870186820F0100018601549BC
:103E30001548B1F90220B0F90000824200DD488047
:103E4000B1F9022040428242BADA488070BD186857
:103E500040F010001860EAE77800002038020020E7
:103E60000E000020160000200F000020100000208F
:103E7000120000201300002011000020140C02404A
:103E800004000020060000204600002082114FF4AC
:103E9000007300280DDBB0F5804F05DDA3EBA0100B
:103EA00031F91000404202E031F91200404200B204
:103EB000704710F5804F04DA03EBA01031F91000C1
:103EC0007047A1EB4200B0F90000704710B5012225
:103ED00011031E48FEF7CCF81D484AF6AA210160DE
:103EE00001681C48A1F53F41FE3901801A4B1B4A6D
:103EF0001888081A00B210801980002800DA4042A1
:103F0000B0F5FA4F01DD002010801549DFED150AEC
:103F10009FED151AB1F9020000EE100AB2F9000087
:103F2000B8EEC00A20EE200A00EE900AF8EEE00A91
:103F300000EE810ABDEEC00A10EE100A488064212E
:103F400010FB01F00949088010BD00000004024088
:103F50000C38004056000020580000205A00002075
:103F6000000000206666663FCDCCCC3D5E000020A0
:103F7000F0B50B88548813FB04F34C88158814FBA8
:103F800005F41B1B43F3CF334FF40046741EE74385
:103F90007D1CB34201DB048004E0BB4201DC0580F0
:103FA00000E003800B88B2F800C013FB0CF34988D3
:103FB000528811FB02F1194441F3CF31B14201DBC8
:103FC0004480F0BDB94201DC4580F0BD4180F0BDC8
:103FD000FEF764F8FFF738FCFFF782F9FFF762F9A4
:103FE000FFF7BCF8FFF708F9FFF70CFAFFF7BCFA88
:103FF000FFF702F8FFF796FAFFF7DEF9FFF78EFEFC
:10400000FCF710FDFCE700002DE9F0415E485F4E33
:10401000008830805E480088708047F23330B0807E
:1040200048F6CD40F0805B485B49008808805B48DB
:10403000008848805A48008888804042C880594B90
:104040000027594C1878682802D1FFF7DFFA27803B
:104050001878682804D05548007808B9FFF71AFB8B
:1040600093F90000524D69280BD12780514A1188DD
:104070004B1C1380490603D54F490988698000E02D
:104080006F804E4F6E280CD14D49B1F9001041B1EF
:104090004C4A1388194411802180396821F00801A5
:1040A00039606F2821D148480088C0EB00104000DB
:1040B000208046494648B1F90020B0F9000082420C
:1040C00000DD0880B1F900204042824200DA088019
:1040D0004048314AB1F90010B0F90000FFF762FA28
:1040E0006880386820F0080038603B49B4F9000067
:1040F000FFF7CCFE394F38802088374900F58040E3
:1041000000B2FFF7C3FE788035493648FCF7C9FA9C
:104110003A4635493348FFF7E9FA344F3868B0601A
:10412000B5F90210304D194AB5F90200FFF73AFA15
:104130002F4C6080B06838602E4F3868B060B5F999
:104140000000124A0021FFF72DFAB1683960B4F976
:104150000210CA032849B1F9001092FBF1F2628003
:10416000C00390FBF1F020801C4A21462348FFF752
:10417000FFFE23492148FFF7E9FA22490870BDE80C
:10418000F0411F48FFF794BA68000020F0000020BB
:104190006A0000206C000020FC0000206E0000205F
:1041A00046000020040000200C0000201100002028
:1041B00006000020000000204A000020140C0240ED
:1041C0000A00002072000020560000205C00002041
:1041D000500000205E000020A6420008740000206D
:1041E000380000203E000020420000206000002037
:1041F0002C00002064000020160000202800002071
:10420000220000207000002070B51848184C90F96A
:104210000000692801D1002121806E2805D11548B0
:10422000008810B11448008820801449B4F90000B7
:10423000FFF72CFE124D28802088104900F58040A1
:1042400000B2FFF723FE68802A460E490E48FFF7AA
:104250008FFE0E490C48FFF779FA0D4908700B489C
:10426000FFF726FABDE87040FCF7EABC0400002026
:104270000C0000200A00002072000020A642000866
:10428000740000202C0000202800002022000020C4
:1042900070000020484340F3CF3070474FF040702B
:1042A000E1EE100A7047000037FF6EFEA5FDDCFC52
:1042B00013FC4AFB81FAB9F9F0F827F85EF796F695
:1042C000CDF505F53DF475F3ADF2E5F11DF155F0D1
:1042D0008EEFC7EEFFED38ED72ECABEBE5EA1EEAD0
:1042E00058E993E8CDE708E743E67EE5B9E4F5E36E
:1042F00031E36DE2AAE1E7E024E061DF9FDEDDDD8E
:104300001BDD5ADC99DBD8DA18DA58D999D8DAD714
:104310001BD75DD69FD5E1D424D468D3ABD2EFD1DF
:1043200034D179D0BFCF05CF4BCE92CDDACC22CCD1
:104330006ACBB3CAFCC946C991C8DCC728C774C6D2
:10434000C0C50EC55BC4AAC3F9C248C298C1E9C0C2
:104350003BC08DBFDFBE32BE86BDDBBC30BC86BB82
:10436000DCBA33BA8BB9E4B83DB897B7F1B64CB6FE
:10437000A8B505B562B4C1B31FB37FB2DFB141B117
:10438000A2B005B069AFCDAE32AE97ADFEAC65ACB4
:10439000CDAB36ABA0AA0BAA76A9E3A850A8BEA7BE
:1043A0002CA79CA60DA67EA5F0A463A4D7A34CA31E
:1043B000C2A239A2B0A129A1A2A01DA0989F149FBA
:1043C000919E0F9E8F9D0E9D8F9C119C949B189B80
:1043D0009D9A239AA9993199BA984398CE975A975A
:1043E000E7967496039693952495B6944894DC9337
:1043F000719307939E923692D0916A910591A19004
:104400003F90DD8F7D8F1E8FBF8E628E068EAB8DAF
:10441000518DF98CA18C4B8CF58BA18B4E8BFC8A2A
:10442000AB8A5B8A0C8ABF8972892789DD88948868
:104430004C880688C0877C873987F786B68676865B
:104440003886FB85BE8583854A851185DA84A384F9
:104450006E843B840884D783A683778349831D8336
:10446000F182C7829E82768250822A820682E3810E
:10447000C181A1818181638146812B811081F78077
:10448000DF80C880B3809E808B807980698059806E
:104490004B803E80328028801F80178010800A80E9
:1044A00006800380018001800006101600061016A9
:1044B00000000000000000000102030406070809D4
:1044C0000000000001020304E8440008000000208E
:1044D000F0000000C4010008D8450008F0000020EA
:1044E000E8230000E0010008000000006800000070
:1044F00000000000000000000000000000000000BC
:1045000000000000000000000000000000000000AB
:10451000000000000000000000000000000000009B
:10452000000000000000000000000000000000008B
:10453000000000000000000000000000000000007B
:10454000000000000000000000000000000000006B
:10455000000000000000000000000000000000005B
:1045600000000000E8030000000000000000000060
:104570000100000010000000000000000024F40012
:10458000000000000000000000000000000000002B
:10459000000000000000000000000000000000001B
:1045A000000000000000000000000000000000000B
:1045B00000000000000000000000000000000000FB
:1045C00000000000000000000000000000000000EB
:0845D0000000000000000000E3
:040000050800018965
:00000001FF
